{
  "contractName": "Crowdfunding",
  "abi": [
    {
      "inputs": [
        {
          "internalType": "address",
          "name": "_owner",
          "type": "address"
        },
        {
          "internalType": "string",
          "name": "_title",
          "type": "string"
        },
        {
          "internalType": "string",
          "name": "_associationName",
          "type": "string"
        },
        {
          "internalType": "uint256",
          "name": "_potId",
          "type": "uint256"
        },
        {
          "internalType": "uint256",
          "name": "_associationId",
          "type": "uint256"
        },
        {
          "internalType": "contract IERC20",
          "name": "_token",
          "type": "address"
        },
        {
          "internalType": "uint256",
          "name": "_targetAmount",
          "type": "uint256"
        }
      ],
      "stateMutability": "nonpayable",
      "type": "constructor"
    },
    {
      "anonymous": false,
      "inputs": [
        {
          "indexed": true,
          "internalType": "address",
          "name": "previousOwner",
          "type": "address"
        },
        {
          "indexed": true,
          "internalType": "address",
          "name": "newOwner",
          "type": "address"
        }
      ],
      "name": "OwnershipTransferred",
      "type": "event"
    },
    {
      "inputs": [],
      "name": "assocationId",
      "outputs": [
        {
          "internalType": "uint256",
          "name": "",
          "type": "uint256"
        }
      ],
      "stateMutability": "view",
      "type": "function"
    },
    {
      "inputs": [],
      "name": "associationName",
      "outputs": [
        {
          "internalType": "string",
          "name": "",
          "type": "string"
        }
      ],
      "stateMutability": "view",
      "type": "function"
    },
    {
      "inputs": [
        {
          "internalType": "address",
          "name": "",
          "type": "address"
        }
      ],
      "name": "contributions",
      "outputs": [
        {
          "internalType": "uint256",
          "name": "",
          "type": "uint256"
        }
      ],
      "stateMutability": "view",
      "type": "function"
    },
    {
      "inputs": [],
      "name": "creator",
      "outputs": [
        {
          "internalType": "address",
          "name": "",
          "type": "address"
        }
      ],
      "stateMutability": "view",
      "type": "function"
    },
    {
      "inputs": [],
      "name": "isFinished",
      "outputs": [
        {
          "internalType": "bool",
          "name": "",
          "type": "bool"
        }
      ],
      "stateMutability": "view",
      "type": "function"
    },
    {
      "inputs": [],
      "name": "owner",
      "outputs": [
        {
          "internalType": "address",
          "name": "",
          "type": "address"
        }
      ],
      "stateMutability": "view",
      "type": "function"
    },
    {
      "inputs": [],
      "name": "potId",
      "outputs": [
        {
          "internalType": "uint256",
          "name": "",
          "type": "uint256"
        }
      ],
      "stateMutability": "view",
      "type": "function"
    },
    {
      "inputs": [],
      "name": "renounceOwnership",
      "outputs": [],
      "stateMutability": "nonpayable",
      "type": "function"
    },
    {
      "inputs": [],
      "name": "targetAmount",
      "outputs": [
        {
          "internalType": "uint256",
          "name": "",
          "type": "uint256"
        }
      ],
      "stateMutability": "view",
      "type": "function"
    },
    {
      "inputs": [],
      "name": "title",
      "outputs": [
        {
          "internalType": "string",
          "name": "",
          "type": "string"
        }
      ],
      "stateMutability": "view",
      "type": "function"
    },
    {
      "inputs": [],
      "name": "token",
      "outputs": [
        {
          "internalType": "contract IERC20",
          "name": "",
          "type": "address"
        }
      ],
      "stateMutability": "view",
      "type": "function"
    },
    {
      "inputs": [],
      "name": "totalCollected",
      "outputs": [
        {
          "internalType": "uint256",
          "name": "",
          "type": "uint256"
        }
      ],
      "stateMutability": "view",
      "type": "function"
    },
    {
      "inputs": [
        {
          "internalType": "address",
          "name": "newOwner",
          "type": "address"
        }
      ],
      "name": "transferOwnership",
      "outputs": [],
      "stateMutability": "nonpayable",
      "type": "function"
    },
    {
      "inputs": [
        {
          "internalType": "uint256",
          "name": "value",
          "type": "uint256"
        }
      ],
      "name": "contribute",
      "outputs": [],
      "stateMutability": "nonpayable",
      "type": "function"
    },
    {
      "inputs": [],
      "name": "collect",
      "outputs": [],
      "stateMutability": "nonpayable",
      "type": "function"
    },
    {
      "inputs": [],
      "name": "state",
      "outputs": [
        {
          "internalType": "bool",
          "name": "",
          "type": "bool"
        }
      ],
      "stateMutability": "view",
      "type": "function"
    },
    {
      "inputs": [],
      "name": "close",
      "outputs": [],
      "stateMutability": "nonpayable",
      "type": "function"
    },
    {
      "inputs": [],
      "name": "refund",
      "outputs": [],
      "stateMutability": "nonpayable",
      "type": "function"
    }
  ],
  "bytecode": "0x60806040523480156200001157600080fd5b5060405162001c4d38038062001c4d83398181016040528101906200003791906200052b565b620000576200004b6200012d60201b60201c565b6200013560201b60201c565b86600160006101000a81548173ffffffffffffffffffffffffffffffffffffffff021916908373ffffffffffffffffffffffffffffffffffffffff16021790555081600860016101000a81548173ffffffffffffffffffffffffffffffffffffffff021916908373ffffffffffffffffffffffffffffffffffffffff160217905550806003819055508560049080519060200190620000f8929190620001f9565b50846005908051906020019062000111929190620001f9565b5083600681905550826007819055505050505050505062000680565b600033905090565b60008060009054906101000a900473ffffffffffffffffffffffffffffffffffffffff169050816000806101000a81548173ffffffffffffffffffffffffffffffffffffffff021916908373ffffffffffffffffffffffffffffffffffffffff1602179055508173ffffffffffffffffffffffffffffffffffffffff168173ffffffffffffffffffffffffffffffffffffffff167f8be0079c531659141344cd1fd0a4f28419497f9722a3daafe3b4186f6b6457e060405160405180910390a35050565b82805462000207906200064b565b90600052602060002090601f0160209004810192826200022b576000855562000277565b82601f106200024657805160ff191683800117855562000277565b8280016001018555821562000277579182015b828111156200027657825182559160200191906001019062000259565b5b5090506200028691906200028a565b5090565b5b80821115620002a55760008160009055506001016200028b565b5090565b6000604051905090565b600080fd5b600080fd5b600073ffffffffffffffffffffffffffffffffffffffff82169050919050565b6000620002ea82620002bd565b9050919050565b620002fc81620002dd565b81146200030857600080fd5b50565b6000815190506200031c81620002f1565b92915050565b600080fd5b600080fd5b6000601f19601f8301169050919050565b7f4e487b7100000000000000000000000000000000000000000000000000000000600052604160045260246000fd5b62000377826200032c565b810181811067ffffffffffffffff821117156200039957620003986200033d565b5b80604052505050565b6000620003ae620002a9565b9050620003bc82826200036c565b919050565b600067ffffffffffffffff821115620003df57620003de6200033d565b5b620003ea826200032c565b9050602081019050919050565b60005b8381101562000417578082015181840152602081019050620003fa565b8381111562000427576000848401525b50505050565b6000620004446200043e84620003c1565b620003a2565b90508281526020810184848401111562000463576200046262000327565b5b62000470848285620003f7565b509392505050565b600082601f83011262000490576200048f62000322565b5b8151620004a28482602086016200042d565b91505092915050565b6000819050919050565b620004c081620004ab565b8114620004cc57600080fd5b50565b600081519050620004e081620004b5565b92915050565b6000620004f382620002dd565b9050919050565b6200050581620004e6565b81146200051157600080fd5b50565b6000815190506200052581620004fa565b92915050565b600080600080600080600060e0888a0312156200054d576200054c620002b3565b5b60006200055d8a828b016200030b565b975050602088015167ffffffffffffffff811115620005815762000580620002b8565b5b6200058f8a828b0162000478565b965050604088015167ffffffffffffffff811115620005b357620005b2620002b8565b5b620005c18a828b0162000478565b9550506060620005d48a828b01620004cf565b9450506080620005e78a828b01620004cf565b93505060a0620005fa8a828b0162000514565b92505060c06200060d8a828b01620004cf565b91505092959891949750929550565b7f4e487b7100000000000000000000000000000000000000000000000000000000600052602260045260246000fd5b600060028204905060018216806200066457607f821691505b6020821081036200067a57620006796200061c565b5b50919050565b6115bd80620006906000396000f3fe608060405234801561001057600080fd5b50600436106101165760003560e01c80638a1ee49c116100a2578063c1cbbca711610071578063c1cbbca714610277578063e29eb83614610293578063e5225381146102b1578063f2fde38b146102bb578063fc0c546a146102d757610116565b80638a1ee49c146101ff5780638da5cb5b1461021d578063953b8fb81461023b578063c19d93fb1461025957610116565b80634a79d50c116100e95780634a79d50c146101915780634d8c8f71146101af578063590e1ae3146101cd578063715018a6146101d75780637b352962146101e157610116565b806302d05d3f1461011b57806334f0dae51461013957806342e94c901461015757806343d726d614610187575b600080fd5b6101236102f5565b6040516101309190610d09565b60405180910390f35b61014161031b565b60405161014e9190610d3d565b60405180910390f35b610171600480360381019061016c9190610d89565b610321565b60405161017e9190610d3d565b60405180910390f35b61018f610339565b005b6101996103ee565b6040516101a69190610e4f565b60405180910390f35b6101b761047c565b6040516101c49190610d3d565b60405180910390f35b6101d5610482565b005b6101df610573565b005b6101e9610587565b6040516101f69190610e8c565b60405180910390f35b61020761059a565b6040516102149190610e4f565b60405180910390f35b610225610628565b6040516102329190610d09565b60405180910390f35b610243610651565b6040516102509190610d3d565b60405180910390f35b610261610657565b60405161026e9190610e8c565b60405180910390f35b610291600480360381019061028c9190610ed3565b61066e565b005b61029b610919565b6040516102a89190610d3d565b60405180910390f35b6102b961091f565b005b6102d560048036038101906102d09190610d89565b610ad5565b005b6102df610b58565b6040516102ec9190610f5f565b60405180910390f35b600160009054906101000a900473ffffffffffffffffffffffffffffffffffffffff1681565b60075481565b60096020528060005260406000206000915090505481565b610341610b7e565b600160009054906101000a900473ffffffffffffffffffffffffffffffffffffffff1673ffffffffffffffffffffffffffffffffffffffff163373ffffffffffffffffffffffffffffffffffffffff16146103d1576040517f08c379a00000000000000000000000000000000000000000000000000000000081526004016103c890610fec565b60405180910390fd5b6001600860006101000a81548160ff021916908315150217905550565b600480546103fb9061103b565b80601f01602080910402602001604051908101604052809291908181526020018280546104279061103b565b80156104745780601f1061044957610100808354040283529160200191610474565b820191906000526020600020905b81548152906001019060200180831161045757829003601f168201915b505050505081565b60065481565b61048a610b7e565b600860009054906101000a900460ff166104d9576040517f08c379a00000000000000000000000000000000000000000000000000000000081526004016104d0906110b8565b60405180910390fd5b600160009054906101000a900473ffffffffffffffffffffffffffffffffffffffff1673ffffffffffffffffffffffffffffffffffffffff163373ffffffffffffffffffffffffffffffffffffffff1614610569576040517f08c379a00000000000000000000000000000000000000000000000000000000081526004016105609061114a565b60405180910390fd5b6000600281905550565b61057b610b7e565b6105856000610bfc565b565b600860009054906101000a900460ff1681565b600580546105a79061103b565b80601f01602080910402602001604051908101604052809291908181526020018280546105d39061103b565b80156106205780601f106105f557610100808354040283529160200191610620565b820191906000526020600020905b81548152906001019060200180831161060357829003601f168201915b505050505081565b60008060009054906101000a900473ffffffffffffffffffffffffffffffffffffffff16905090565b60035481565b6000610661610b7e565b6003546002541015905090565b600860009054906101000a900460ff16156106be576040517f08c379a00000000000000000000000000000000000000000000000000000000081526004016106b5906111b6565b60405180910390fd5b60008111610701576040517f08c379a00000000000000000000000000000000000000000000000000000000081526004016106f890611222565b60405180910390fd5b80600860019054906101000a900473ffffffffffffffffffffffffffffffffffffffff1673ffffffffffffffffffffffffffffffffffffffff166370a08231336040518263ffffffff1660e01b815260040161075d9190610d09565b602060405180830381865afa15801561077a573d6000803e3d6000fd5b505050506040513d601f19601f8201168201806040525081019061079e9190611257565b10156107df576040517f08c379a00000000000000000000000000000000000000000000000000000000081526004016107d6906112d0565b60405180910390fd5b600860019054906101000a900473ffffffffffffffffffffffffffffffffffffffff1673ffffffffffffffffffffffffffffffffffffffff1663a9059cbb30836040518363ffffffff1660e01b815260040161083c9291906112f0565b6020604051808303816000875af115801561085b573d6000803e3d6000fd5b505050506040513d601f19601f8201168201806040525081019061087f9190611345565b50806002600082825461089291906113a1565b9250508190555080600960003373ffffffffffffffffffffffffffffffffffffffff1673ffffffffffffffffffffffffffffffffffffffff16815260200190815260200160002060008282546108e891906113a1565b9250508190555060035460025410610916576001600860006101000a81548160ff0219169083151502179055505b50565b60025481565b610927610b7e565b600860009054906101000a900460ff16610976576040517f08c379a000000000000000000000000000000000000000000000000000000000815260040161096d906110b8565b60405180910390fd5b600160009054906101000a900473ffffffffffffffffffffffffffffffffffffffff1673ffffffffffffffffffffffffffffffffffffffff163373ffffffffffffffffffffffffffffffffffffffff1614610a06576040517f08c379a00000000000000000000000000000000000000000000000000000000081526004016109fd90611469565b60405180910390fd5b600860019054906101000a900473ffffffffffffffffffffffffffffffffffffffff1673ffffffffffffffffffffffffffffffffffffffff1663a9059cbb600160009054906101000a900473ffffffffffffffffffffffffffffffffffffffff166002546040518363ffffffff1660e01b8152600401610a879291906112f0565b6020604051808303816000875af1158015610aa6573d6000803e3d6000fd5b505050506040513d601f19601f82011682018060405250810190610aca9190611345565b506000600281905550565b610add610b7e565b600073ffffffffffffffffffffffffffffffffffffffff168173ffffffffffffffffffffffffffffffffffffffff1603610b4c576040517f08c379a0000000000000000000000000000000000000000000000000000000008152600401610b43906114fb565b60405180910390fd5b610b5581610bfc565b50565b600860019054906101000a900473ffffffffffffffffffffffffffffffffffffffff1681565b610b86610cc0565b73ffffffffffffffffffffffffffffffffffffffff16610ba4610628565b73ffffffffffffffffffffffffffffffffffffffff1614610bfa576040517f08c379a0000000000000000000000000000000000000000000000000000000008152600401610bf190611567565b60405180910390fd5b565b60008060009054906101000a900473ffffffffffffffffffffffffffffffffffffffff169050816000806101000a81548173ffffffffffffffffffffffffffffffffffffffff021916908373ffffffffffffffffffffffffffffffffffffffff1602179055508173ffffffffffffffffffffffffffffffffffffffff168173ffffffffffffffffffffffffffffffffffffffff167f8be0079c531659141344cd1fd0a4f28419497f9722a3daafe3b4186f6b6457e060405160405180910390a35050565b600033905090565b600073ffffffffffffffffffffffffffffffffffffffff82169050919050565b6000610cf382610cc8565b9050919050565b610d0381610ce8565b82525050565b6000602082019050610d1e6000830184610cfa565b92915050565b6000819050919050565b610d3781610d24565b82525050565b6000602082019050610d526000830184610d2e565b92915050565b600080fd5b610d6681610ce8565b8114610d7157600080fd5b50565b600081359050610d8381610d5d565b92915050565b600060208284031215610d9f57610d9e610d58565b5b6000610dad84828501610d74565b91505092915050565b600081519050919050565b600082825260208201905092915050565b60005b83811015610df0578082015181840152602081019050610dd5565b83811115610dff576000848401525b50505050565b6000601f19601f8301169050919050565b6000610e2182610db6565b610e2b8185610dc1565b9350610e3b818560208601610dd2565b610e4481610e05565b840191505092915050565b60006020820190508181036000830152610e698184610e16565b905092915050565b60008115159050919050565b610e8681610e71565b82525050565b6000602082019050610ea16000830184610e7d565b92915050565b610eb081610d24565b8114610ebb57600080fd5b50565b600081359050610ecd81610ea7565b92915050565b600060208284031215610ee957610ee8610d58565b5b6000610ef784828501610ebe565b91505092915050565b6000819050919050565b6000610f25610f20610f1b84610cc8565b610f00565b610cc8565b9050919050565b6000610f3782610f0a565b9050919050565b6000610f4982610f2c565b9050919050565b610f5981610f3e565b82525050565b6000602082019050610f746000830184610f50565b92915050565b7f4f6e6c79207468652063726561746f722063616e20636c6f736520746865206360008201527f726f776466756e64696e67000000000000000000000000000000000000000000602082015250565b6000610fd6602b83610dc1565b9150610fe182610f7a565b604082019050919050565b6000602082019050818103600083015261100581610fc9565b9050919050565b7f4e487b7100000000000000000000000000000000000000000000000000000000600052602260045260246000fd5b6000600282049050600182168061105357607f821691505b6020821081036110665761106561100c565b5b50919050565b7f43726f776466756e64696e67206e6f742066696e697368656400000000000000600082015250565b60006110a2601983610dc1565b91506110ad8261106c565b602082019050919050565b600060208201905081810360008301526110d181611095565b9050919050565b7f4f6e6c79207468652063726561746f722063616e20726566756e64207468652060008201527f7061727469636970616e74730000000000000000000000000000000000000000602082015250565b6000611134602c83610dc1565b915061113f826110d8565b604082019050919050565b6000602082019050818103600083015261116381611127565b9050919050565b7f43726f776466756e64696e672066696e69736865640000000000000000000000600082015250565b60006111a0601583610dc1565b91506111ab8261116a565b602082019050919050565b600060208201905081810360008301526111cf81611193565b9050919050565b7f496e76616c696420636f6e747269627574696f6e20616d6f756e740000000000600082015250565b600061120c601b83610dc1565b9150611217826111d6565b602082019050919050565b6000602082019050818103600083015261123b816111ff565b9050919050565b60008151905061125181610ea7565b92915050565b60006020828403121561126d5761126c610d58565b5b600061127b84828501611242565b91505092915050565b7f496e73756666696369656e742066756e64730000000000000000000000000000600082015250565b60006112ba601283610dc1565b91506112c582611284565b602082019050919050565b600060208201905081810360008301526112e9816112ad565b9050919050565b60006040820190506113056000830185610cfa565b6113126020830184610d2e565b9392505050565b61132281610e71565b811461132d57600080fd5b50565b60008151905061133f81611319565b92915050565b60006020828403121561135b5761135a610d58565b5b600061136984828501611330565b91505092915050565b7f4e487b7100000000000000000000000000000000000000000000000000000000600052601160045260246000fd5b60006113ac82610d24565b91506113b783610d24565b9250827fffffffffffffffffffffffffffffffffffffffffffffffffffffffffffffffff038211156113ec576113eb611372565b5b828201905092915050565b7f4f6e6c79207468652063726561746f722063616e20636f6c6c6563742074686560008201527f2066756e64730000000000000000000000000000000000000000000000000000602082015250565b6000611453602683610dc1565b915061145e826113f7565b604082019050919050565b6000602082019050818103600083015261148281611446565b9050919050565b7f4f776e61626c653a206e6577206f776e657220697320746865207a65726f206160008201527f6464726573730000000000000000000000000000000000000000000000000000602082015250565b60006114e5602683610dc1565b91506114f082611489565b604082019050919050565b60006020820190508181036000830152611514816114d8565b9050919050565b7f4f776e61626c653a2063616c6c6572206973206e6f7420746865206f776e6572600082015250565b6000611551602083610dc1565b915061155c8261151b565b602082019050919050565b6000602082019050818103600083015261158081611544565b905091905056fea26469706673582212207fc7f47ff6984dd8bc91ca51d57c99061171b7b5c4d05c0c7f117cef5ad6040964736f6c634300080d0033",
  "immutableReferences": {},
  "source": "// SPDX-License-Identifier: MIT\npragma solidity ^0.8.13;\n\nimport \"@openzeppelin/contracts/access/Ownable.sol\";\nimport \"@openzeppelin/contracts/token/ERC20/ERC20.sol\";\n\n// On dfinit notre contrat de cagnotte\ncontract Crowdfunding is Ownable {\n    // On stocke l'adresse du crateur de la cagnotte\n    address public creator;\n    // On stocke le montant total collect\n    uint256 public totalCollected;\n    // On stocke le montant cibl pour la cagnotte\n    uint256 public targetAmount;\n    // Nom de la cagnotte\n    string public title;\n    // Nom de l'association\n    string public associationName;\n    // Id de la cagnotte\n    uint256 public potId;\n    // Id de l'association\n    uint256 public assocationId;\n    // On stocke l'tat de la cagnotte (en cours ou termine)\n    bool public isFinished;\n    // On stocke l'adresse du contrat ERC20 utilis pour la cagnotte\n    IERC20 public token;\n    // On stocke les contributions de chaque participant\n    mapping(address => uint256) public contributions;\n\n    // On dfinit le constructeur du contrat\n    constructor(\n        address _owner,\n        string memory _title, \n        string memory _associationName, \n        uint256 _potId, \n        uint256 _associationId,\n        IERC20 _token,\n        uint256 _targetAmount\n    ) public {\n        creator = _owner;\n        token = _token;\n        targetAmount = _targetAmount;\n        title = _title;\n        associationName = _associationName;\n        potId = _potId;\n        assocationId = _associationId;\n    }\n\n    // Fonction pour participer  la cagnotte\n    function contribute(uint256 value) public {\n        // On vrifie que la cagnotte est en cours\n        require(!isFinished, \"Crowdfunding finished\");\n        // On vrifie que le participant envoie au moins 1 token\n        require(value > 0, \"Invalid contribution amount\");\n        // On vrifie que le participant a assez de fonds pour effectuer la transaction\n        require(token.balanceOf(msg.sender) >= value, \"Insufficient funds\");\n        // On envoie les fonds au contrat de cagnotte\n        token.transfer(address(this), value);\n        // On incrmente le montant total collect\n        totalCollected += value;\n        // On met  jour les contributions du participant\n        contributions[msg.sender] += value;\n        // On met  jour l'tat de la cagnotte si le montant cibl est atteint\n        if (totalCollected >= targetAmount) {\n            isFinished = true;\n        }\n    }\n\n    // Fonction pour rcuprer les fonds de la cagnotte\n    function collect() public onlyOwner {\n        // On vrifie que la cagnotte est termine\n        require(isFinished, \"Crowdfunding not finished\");\n        // On vrifie que le demandeur est bien le crateur de la cagnotte\n        require(\n            msg.sender == creator,\n            \"Only the creator can collect the funds\"\n        );\n        // On envoie les fonds au crateur de la cagnotte\n        token.transfer(creator, totalCollected);\n        // On remet le montant total collect  zro\n        totalCollected = 0;\n    }\n\n    // Fonction pour vrifier si la cagnotte est termine\n    function state() public view onlyOwner returns (bool) {\n        // On vrifie si le montant cibl a t atteint\n        return totalCollected >= targetAmount;\n    }\n\n    // Fonction pour cloturer la cagnotte\n    function close() public onlyOwner {\n        // On vrifie que le demandeur est bien le crateur de la cagnotte\n        require(\n            msg.sender == creator,\n            \"Only the creator can close the crowdfunding\"\n        );\n        // On met  jour l'tat de la cagnotte\n        isFinished = true;\n    }\n\n    // Fonction pour rembourser les participants\n    function refund() public onlyOwner {\n        // On vrifie que la cagnotte est termine\n        require(isFinished, \"Crowdfunding not finished\");\n        // On vrifie que le demandeur est bien le crateur de la cagnotte\n        require(\n            msg.sender == creator,\n            \"Only the creator can refund the participants\"\n        );\n        // On parcourt les contributions de chaque participant\n        //for (address participant in contributions) {\n        // On envoie les fonds correspondants au participant\n        //token.transfer(participant, contributions[participant]);\n        //}\n        // On remet le montant total collect  zro\n        totalCollected = 0;\n    }\n}\n",
  "sourcePath": "/Users/theo/projects/eternals/web3streaming/contracts/Crowdfunding.sol",
  "compiler": {
    "name": "solc",
    "version": "0.8.13+commit.abaa5c0e.Emscripten.clang"
  },
  "schemaVersion": "3.4.10",
  "updatedAt": "2023-03-05T22:37:42.166Z",
  "networkType": "ethereum",
  "devdoc": {
    "kind": "dev",
    "methods": {
      "owner()": {
        "details": "Returns the address of the current owner."
      },
      "renounceOwnership()": {
        "details": "Leaves the contract without owner. It will not be possible to call `onlyOwner` functions anymore. Can only be called by the current owner. NOTE: Renouncing ownership will leave the contract without an owner, thereby removing any functionality that is only available to the owner."
      },
      "transferOwnership(address)": {
        "details": "Transfers ownership of the contract to a new account (`newOwner`). Can only be called by the current owner."
      }
    },
    "version": 1
  },
  "userdoc": {
    "kind": "user",
    "methods": {},
    "version": 1
  }
}