{
  "contractName": "Factory",
  "abi": [
    {
      "anonymous": false,
      "inputs": [
        {
          "indexed": true,
          "internalType": "address",
          "name": "previousOwner",
          "type": "address"
        },
        {
          "indexed": true,
          "internalType": "address",
          "name": "newOwner",
          "type": "address"
        }
      ],
      "name": "OwnershipTransferred",
      "type": "event"
    },
    {
      "anonymous": false,
      "inputs": [
        {
          "indexed": false,
          "internalType": "address",
          "name": "contractAddress",
          "type": "address"
        }
      ],
      "name": "PotCreated",
      "type": "event"
    },
    {
      "inputs": [],
      "name": "owner",
      "outputs": [
        {
          "internalType": "address",
          "name": "",
          "type": "address"
        }
      ],
      "stateMutability": "view",
      "type": "function",
      "constant": true
    },
    {
      "inputs": [],
      "name": "renounceOwnership",
      "outputs": [],
      "stateMutability": "nonpayable",
      "type": "function"
    },
    {
      "inputs": [
        {
          "internalType": "address",
          "name": "newOwner",
          "type": "address"
        }
      ],
      "name": "transferOwnership",
      "outputs": [],
      "stateMutability": "nonpayable",
      "type": "function"
    },
    {
      "inputs": [
        {
          "internalType": "string",
          "name": "title",
          "type": "string"
        },
        {
          "internalType": "string",
          "name": "associationName",
          "type": "string"
        },
        {
          "internalType": "uint256",
          "name": "potId",
          "type": "uint256"
        },
        {
          "internalType": "uint256",
          "name": "associationId",
          "type": "uint256"
        },
        {
          "internalType": "address",
          "name": "token",
          "type": "address"
        },
        {
          "internalType": "uint256",
          "name": "targetAmount",
          "type": "uint256"
        }
      ],
      "name": "create",
      "outputs": [],
      "stateMutability": "nonpayable",
      "type": "function"
    },
    {
      "inputs": [],
      "name": "get",
      "outputs": [
        {
          "internalType": "uint256",
          "name": "contractCount",
          "type": "uint256"
        }
      ],
      "stateMutability": "view",
      "type": "function",
      "constant": true
    },
    {
      "inputs": [
        {
          "internalType": "uint256",
          "name": "pos",
          "type": "uint256"
        }
      ],
      "name": "see",
      "outputs": [
        {
          "internalType": "address",
          "name": "contractAddress",
          "type": "address"
        }
      ],
      "stateMutability": "view",
      "type": "function",
      "constant": true
    }
  ],
  "bytecode": "0x608060405234801561001057600080fd5b5061002d61002261003260201b60201c565b61003a60201b60201c565b6100fe565b600033905090565b60008060009054906101000a900473ffffffffffffffffffffffffffffffffffffffff169050816000806101000a81548173ffffffffffffffffffffffffffffffffffffffff021916908373ffffffffffffffffffffffffffffffffffffffff1602179055508173ffffffffffffffffffffffffffffffffffffffff168173ffffffffffffffffffffffffffffffffffffffff167f8be0079c531659141344cd1fd0a4f28419497f9722a3daafe3b4186f6b6457e060405160405180910390a35050565b61276b8061010d6000396000f3fe60806040523480156200001157600080fd5b50600436106200006a5760003560e01c806347008c07146200006f5780636d4ce63c146200008f578063715018a614620000b15780638da5cb5b14620000bd578063ea7a7aba14620000df578063f2fde38b1462000115575b600080fd5b6200008d60048036038101906200008791906200068c565b62000135565b005b62000099620001f4565b604051620000a8919062000777565b60405180910390f35b620000bb62000201565b005b620000c762000219565b604051620000d69190620007a5565b60405180910390f35b620000fd6004803603810190620000f79190620007c2565b62000242565b6040516200010c9190620007a5565b60405180910390f35b6200013360048036038101906200012d9190620007f4565b6200028d565b005b6200013f62000317565b600033878787878787604051620001569062000468565b62000168979695949392919062000924565b604051809103906000f08015801562000185573d6000803e3d6000fd5b5090506001819080600181540180825580915050600190039060005260206000200160009091909190916101000a81548173ffffffffffffffffffffffffffffffffffffffff021916908373ffffffffffffffffffffffffffffffffffffffff16021790555050505050505050565b6000600180549050905090565b6200020b62000317565b6200021760006200039c565b565b60008060009054906101000a900473ffffffffffffffffffffffffffffffffffffffff16905090565b6000600182815481106200025b576200025a620009af565b5b9060005260206000200160009054906101000a900473ffffffffffffffffffffffffffffffffffffffff169050919050565b6200029762000317565b600073ffffffffffffffffffffffffffffffffffffffff168173ffffffffffffffffffffffffffffffffffffffff160362000309576040517f08c379a0000000000000000000000000000000000000000000000000000000008152600401620003009062000a54565b60405180910390fd5b62000314816200039c565b50565b6200032162000460565b73ffffffffffffffffffffffffffffffffffffffff166200034162000219565b73ffffffffffffffffffffffffffffffffffffffff16146200039a576040517f08c379a0000000000000000000000000000000000000000000000000000000008152600401620003919062000ac6565b60405180910390fd5b565b60008060009054906101000a900473ffffffffffffffffffffffffffffffffffffffff169050816000806101000a81548173ffffffffffffffffffffffffffffffffffffffff021916908373ffffffffffffffffffffffffffffffffffffffff1602179055508173ffffffffffffffffffffffffffffffffffffffff168173ffffffffffffffffffffffffffffffffffffffff167f8be0079c531659141344cd1fd0a4f28419497f9722a3daafe3b4186f6b6457e060405160405180910390a35050565b600033905090565b611c4d8062000ae983390190565b6000604051905090565b600080fd5b600080fd5b600080fd5b600080fd5b6000601f19601f8301169050919050565b7f4e487b7100000000000000000000000000000000000000000000000000000000600052604160045260246000fd5b620004df8262000494565b810181811067ffffffffffffffff82111715620005015762000500620004a5565b5b80604052505050565b60006200051662000476565b9050620005248282620004d4565b919050565b600067ffffffffffffffff821115620005475762000546620004a5565b5b620005528262000494565b9050602081019050919050565b82818337600083830152505050565b6000620005856200057f8462000529565b6200050a565b905082815260208101848484011115620005a457620005a36200048f565b5b620005b18482856200055f565b509392505050565b600082601f830112620005d157620005d06200048a565b5b8135620005e38482602086016200056e565b91505092915050565b6000819050919050565b6200060181620005ec565b81146200060d57600080fd5b50565b6000813590506200062181620005f6565b92915050565b600073ffffffffffffffffffffffffffffffffffffffff82169050919050565b6000620006548262000627565b9050919050565b620006668162000647565b81146200067257600080fd5b50565b60008135905062000686816200065b565b92915050565b60008060008060008060c08789031215620006ac57620006ab62000480565b5b600087013567ffffffffffffffff811115620006cd57620006cc62000485565b5b620006db89828a01620005b9565b965050602087013567ffffffffffffffff811115620006ff57620006fe62000485565b5b6200070d89828a01620005b9565b95505060406200072089828a0162000610565b94505060606200073389828a0162000610565b93505060806200074689828a0162000675565b92505060a06200075989828a0162000610565b9150509295509295509295565b6200077181620005ec565b82525050565b60006020820190506200078e600083018462000766565b92915050565b6200079f8162000647565b82525050565b6000602082019050620007bc600083018462000794565b92915050565b600060208284031215620007db57620007da62000480565b5b6000620007eb8482850162000610565b91505092915050565b6000602082840312156200080d576200080c62000480565b5b60006200081d8482850162000675565b91505092915050565b600081519050919050565b600082825260208201905092915050565b60005b838110156200086257808201518184015260208101905062000845565b8381111562000872576000848401525b50505050565b6000620008858262000826565b62000891818562000831565b9350620008a381856020860162000842565b620008ae8162000494565b840191505092915050565b6000819050919050565b6000620008e4620008de620008d88462000627565b620008b9565b62000627565b9050919050565b6000620008f882620008c3565b9050919050565b60006200090c82620008eb565b9050919050565b6200091e81620008ff565b82525050565b600060e0820190506200093b600083018a62000794565b81810360208301526200094f818962000878565b9050818103604083015262000965818862000878565b905062000976606083018762000766565b62000985608083018662000766565b6200099460a083018562000913565b620009a360c083018462000766565b98975050505050505050565b7f4e487b7100000000000000000000000000000000000000000000000000000000600052603260045260246000fd5b7f4f776e61626c653a206e6577206f776e657220697320746865207a65726f206160008201527f6464726573730000000000000000000000000000000000000000000000000000602082015250565b600062000a3c60268362000831565b915062000a4982620009de565b604082019050919050565b6000602082019050818103600083015262000a6f8162000a2d565b9050919050565b7f4f776e61626c653a2063616c6c6572206973206e6f7420746865206f776e6572600082015250565b600062000aae60208362000831565b915062000abb8262000a76565b602082019050919050565b6000602082019050818103600083015262000ae18162000a9f565b905091905056fe60806040523480156200001157600080fd5b5060405162001c4d38038062001c4d83398181016040528101906200003791906200052b565b620000576200004b6200012d60201b60201c565b6200013560201b60201c565b86600160006101000a81548173ffffffffffffffffffffffffffffffffffffffff021916908373ffffffffffffffffffffffffffffffffffffffff16021790555081600860016101000a81548173ffffffffffffffffffffffffffffffffffffffff021916908373ffffffffffffffffffffffffffffffffffffffff160217905550806003819055508560049080519060200190620000f8929190620001f9565b50846005908051906020019062000111929190620001f9565b5083600681905550826007819055505050505050505062000680565b600033905090565b60008060009054906101000a900473ffffffffffffffffffffffffffffffffffffffff169050816000806101000a81548173ffffffffffffffffffffffffffffffffffffffff021916908373ffffffffffffffffffffffffffffffffffffffff1602179055508173ffffffffffffffffffffffffffffffffffffffff168173ffffffffffffffffffffffffffffffffffffffff167f8be0079c531659141344cd1fd0a4f28419497f9722a3daafe3b4186f6b6457e060405160405180910390a35050565b82805462000207906200064b565b90600052602060002090601f0160209004810192826200022b576000855562000277565b82601f106200024657805160ff191683800117855562000277565b8280016001018555821562000277579182015b828111156200027657825182559160200191906001019062000259565b5b5090506200028691906200028a565b5090565b5b80821115620002a55760008160009055506001016200028b565b5090565b6000604051905090565b600080fd5b600080fd5b600073ffffffffffffffffffffffffffffffffffffffff82169050919050565b6000620002ea82620002bd565b9050919050565b620002fc81620002dd565b81146200030857600080fd5b50565b6000815190506200031c81620002f1565b92915050565b600080fd5b600080fd5b6000601f19601f8301169050919050565b7f4e487b7100000000000000000000000000000000000000000000000000000000600052604160045260246000fd5b62000377826200032c565b810181811067ffffffffffffffff821117156200039957620003986200033d565b5b80604052505050565b6000620003ae620002a9565b9050620003bc82826200036c565b919050565b600067ffffffffffffffff821115620003df57620003de6200033d565b5b620003ea826200032c565b9050602081019050919050565b60005b8381101562000417578082015181840152602081019050620003fa565b8381111562000427576000848401525b50505050565b6000620004446200043e84620003c1565b620003a2565b90508281526020810184848401111562000463576200046262000327565b5b62000470848285620003f7565b509392505050565b600082601f83011262000490576200048f62000322565b5b8151620004a28482602086016200042d565b91505092915050565b6000819050919050565b620004c081620004ab565b8114620004cc57600080fd5b50565b600081519050620004e081620004b5565b92915050565b6000620004f382620002dd565b9050919050565b6200050581620004e6565b81146200051157600080fd5b50565b6000815190506200052581620004fa565b92915050565b600080600080600080600060e0888a0312156200054d576200054c620002b3565b5b60006200055d8a828b016200030b565b975050602088015167ffffffffffffffff811115620005815762000580620002b8565b5b6200058f8a828b0162000478565b965050604088015167ffffffffffffffff811115620005b357620005b2620002b8565b5b620005c18a828b0162000478565b9550506060620005d48a828b01620004cf565b9450506080620005e78a828b01620004cf565b93505060a0620005fa8a828b0162000514565b92505060c06200060d8a828b01620004cf565b91505092959891949750929550565b7f4e487b7100000000000000000000000000000000000000000000000000000000600052602260045260246000fd5b600060028204905060018216806200066457607f821691505b6020821081036200067a57620006796200061c565b5b50919050565b6115bd80620006906000396000f3fe608060405234801561001057600080fd5b50600436106101165760003560e01c80638a1ee49c116100a2578063c1cbbca711610071578063c1cbbca714610277578063e29eb83614610293578063e5225381146102b1578063f2fde38b146102bb578063fc0c546a146102d757610116565b80638a1ee49c146101ff5780638da5cb5b1461021d578063953b8fb81461023b578063c19d93fb1461025957610116565b80634a79d50c116100e95780634a79d50c146101915780634d8c8f71146101af578063590e1ae3146101cd578063715018a6146101d75780637b352962146101e157610116565b806302d05d3f1461011b57806334f0dae51461013957806342e94c901461015757806343d726d614610187575b600080fd5b6101236102f5565b6040516101309190610d09565b60405180910390f35b61014161031b565b60405161014e9190610d3d565b60405180910390f35b610171600480360381019061016c9190610d89565b610321565b60405161017e9190610d3d565b60405180910390f35b61018f610339565b005b6101996103ee565b6040516101a69190610e4f565b60405180910390f35b6101b761047c565b6040516101c49190610d3d565b60405180910390f35b6101d5610482565b005b6101df610573565b005b6101e9610587565b6040516101f69190610e8c565b60405180910390f35b61020761059a565b6040516102149190610e4f565b60405180910390f35b610225610628565b6040516102329190610d09565b60405180910390f35b610243610651565b6040516102509190610d3d565b60405180910390f35b610261610657565b60405161026e9190610e8c565b60405180910390f35b610291600480360381019061028c9190610ed3565b61066e565b005b61029b610919565b6040516102a89190610d3d565b60405180910390f35b6102b961091f565b005b6102d560048036038101906102d09190610d89565b610ad5565b005b6102df610b58565b6040516102ec9190610f5f565b60405180910390f35b600160009054906101000a900473ffffffffffffffffffffffffffffffffffffffff1681565b60075481565b60096020528060005260406000206000915090505481565b610341610b7e565b600160009054906101000a900473ffffffffffffffffffffffffffffffffffffffff1673ffffffffffffffffffffffffffffffffffffffff163373ffffffffffffffffffffffffffffffffffffffff16146103d1576040517f08c379a00000000000000000000000000000000000000000000000000000000081526004016103c890610fec565b60405180910390fd5b6001600860006101000a81548160ff021916908315150217905550565b600480546103fb9061103b565b80601f01602080910402602001604051908101604052809291908181526020018280546104279061103b565b80156104745780601f1061044957610100808354040283529160200191610474565b820191906000526020600020905b81548152906001019060200180831161045757829003601f168201915b505050505081565b60065481565b61048a610b7e565b600860009054906101000a900460ff166104d9576040517f08c379a00000000000000000000000000000000000000000000000000000000081526004016104d0906110b8565b60405180910390fd5b600160009054906101000a900473ffffffffffffffffffffffffffffffffffffffff1673ffffffffffffffffffffffffffffffffffffffff163373ffffffffffffffffffffffffffffffffffffffff1614610569576040517f08c379a00000000000000000000000000000000000000000000000000000000081526004016105609061114a565b60405180910390fd5b6000600281905550565b61057b610b7e565b6105856000610bfc565b565b600860009054906101000a900460ff1681565b600580546105a79061103b565b80601f01602080910402602001604051908101604052809291908181526020018280546105d39061103b565b80156106205780601f106105f557610100808354040283529160200191610620565b820191906000526020600020905b81548152906001019060200180831161060357829003601f168201915b505050505081565b60008060009054906101000a900473ffffffffffffffffffffffffffffffffffffffff16905090565b60035481565b6000610661610b7e565b6003546002541015905090565b600860009054906101000a900460ff16156106be576040517f08c379a00000000000000000000000000000000000000000000000000000000081526004016106b5906111b6565b60405180910390fd5b60008111610701576040517f08c379a00000000000000000000000000000000000000000000000000000000081526004016106f890611222565b60405180910390fd5b80600860019054906101000a900473ffffffffffffffffffffffffffffffffffffffff1673ffffffffffffffffffffffffffffffffffffffff166370a08231336040518263ffffffff1660e01b815260040161075d9190610d09565b602060405180830381865afa15801561077a573d6000803e3d6000fd5b505050506040513d601f19601f8201168201806040525081019061079e9190611257565b10156107df576040517f08c379a00000000000000000000000000000000000000000000000000000000081526004016107d6906112d0565b60405180910390fd5b600860019054906101000a900473ffffffffffffffffffffffffffffffffffffffff1673ffffffffffffffffffffffffffffffffffffffff1663a9059cbb30836040518363ffffffff1660e01b815260040161083c9291906112f0565b6020604051808303816000875af115801561085b573d6000803e3d6000fd5b505050506040513d601f19601f8201168201806040525081019061087f9190611345565b50806002600082825461089291906113a1565b9250508190555080600960003373ffffffffffffffffffffffffffffffffffffffff1673ffffffffffffffffffffffffffffffffffffffff16815260200190815260200160002060008282546108e891906113a1565b9250508190555060035460025410610916576001600860006101000a81548160ff0219169083151502179055505b50565b60025481565b610927610b7e565b600860009054906101000a900460ff16610976576040517f08c379a000000000000000000000000000000000000000000000000000000000815260040161096d906110b8565b60405180910390fd5b600160009054906101000a900473ffffffffffffffffffffffffffffffffffffffff1673ffffffffffffffffffffffffffffffffffffffff163373ffffffffffffffffffffffffffffffffffffffff1614610a06576040517f08c379a00000000000000000000000000000000000000000000000000000000081526004016109fd90611469565b60405180910390fd5b600860019054906101000a900473ffffffffffffffffffffffffffffffffffffffff1673ffffffffffffffffffffffffffffffffffffffff1663a9059cbb600160009054906101000a900473ffffffffffffffffffffffffffffffffffffffff166002546040518363ffffffff1660e01b8152600401610a879291906112f0565b6020604051808303816000875af1158015610aa6573d6000803e3d6000fd5b505050506040513d601f19601f82011682018060405250810190610aca9190611345565b506000600281905550565b610add610b7e565b600073ffffffffffffffffffffffffffffffffffffffff168173ffffffffffffffffffffffffffffffffffffffff1603610b4c576040517f08c379a0000000000000000000000000000000000000000000000000000000008152600401610b43906114fb565b60405180910390fd5b610b5581610bfc565b50565b600860019054906101000a900473ffffffffffffffffffffffffffffffffffffffff1681565b610b86610cc0565b73ffffffffffffffffffffffffffffffffffffffff16610ba4610628565b73ffffffffffffffffffffffffffffffffffffffff1614610bfa576040517f08c379a0000000000000000000000000000000000000000000000000000000008152600401610bf190611567565b60405180910390fd5b565b60008060009054906101000a900473ffffffffffffffffffffffffffffffffffffffff169050816000806101000a81548173ffffffffffffffffffffffffffffffffffffffff021916908373ffffffffffffffffffffffffffffffffffffffff1602179055508173ffffffffffffffffffffffffffffffffffffffff168173ffffffffffffffffffffffffffffffffffffffff167f8be0079c531659141344cd1fd0a4f28419497f9722a3daafe3b4186f6b6457e060405160405180910390a35050565b600033905090565b600073ffffffffffffffffffffffffffffffffffffffff82169050919050565b6000610cf382610cc8565b9050919050565b610d0381610ce8565b82525050565b6000602082019050610d1e6000830184610cfa565b92915050565b6000819050919050565b610d3781610d24565b82525050565b6000602082019050610d526000830184610d2e565b92915050565b600080fd5b610d6681610ce8565b8114610d7157600080fd5b50565b600081359050610d8381610d5d565b92915050565b600060208284031215610d9f57610d9e610d58565b5b6000610dad84828501610d74565b91505092915050565b600081519050919050565b600082825260208201905092915050565b60005b83811015610df0578082015181840152602081019050610dd5565b83811115610dff576000848401525b50505050565b6000601f19601f8301169050919050565b6000610e2182610db6565b610e2b8185610dc1565b9350610e3b818560208601610dd2565b610e4481610e05565b840191505092915050565b60006020820190508181036000830152610e698184610e16565b905092915050565b60008115159050919050565b610e8681610e71565b82525050565b6000602082019050610ea16000830184610e7d565b92915050565b610eb081610d24565b8114610ebb57600080fd5b50565b600081359050610ecd81610ea7565b92915050565b600060208284031215610ee957610ee8610d58565b5b6000610ef784828501610ebe565b91505092915050565b6000819050919050565b6000610f25610f20610f1b84610cc8565b610f00565b610cc8565b9050919050565b6000610f3782610f0a565b9050919050565b6000610f4982610f2c565b9050919050565b610f5981610f3e565b82525050565b6000602082019050610f746000830184610f50565b92915050565b7f4f6e6c79207468652063726561746f722063616e20636c6f736520746865206360008201527f726f776466756e64696e67000000000000000000000000000000000000000000602082015250565b6000610fd6602b83610dc1565b9150610fe182610f7a565b604082019050919050565b6000602082019050818103600083015261100581610fc9565b9050919050565b7f4e487b7100000000000000000000000000000000000000000000000000000000600052602260045260246000fd5b6000600282049050600182168061105357607f821691505b6020821081036110665761106561100c565b5b50919050565b7f43726f776466756e64696e67206e6f742066696e697368656400000000000000600082015250565b60006110a2601983610dc1565b91506110ad8261106c565b602082019050919050565b600060208201905081810360008301526110d181611095565b9050919050565b7f4f6e6c79207468652063726561746f722063616e20726566756e64207468652060008201527f7061727469636970616e74730000000000000000000000000000000000000000602082015250565b6000611134602c83610dc1565b915061113f826110d8565b604082019050919050565b6000602082019050818103600083015261116381611127565b9050919050565b7f43726f776466756e64696e672066696e69736865640000000000000000000000600082015250565b60006111a0601583610dc1565b91506111ab8261116a565b602082019050919050565b600060208201905081810360008301526111cf81611193565b9050919050565b7f496e76616c696420636f6e747269627574696f6e20616d6f756e740000000000600082015250565b600061120c601b83610dc1565b9150611217826111d6565b602082019050919050565b6000602082019050818103600083015261123b816111ff565b9050919050565b60008151905061125181610ea7565b92915050565b60006020828403121561126d5761126c610d58565b5b600061127b84828501611242565b91505092915050565b7f496e73756666696369656e742066756e64730000000000000000000000000000600082015250565b60006112ba601283610dc1565b91506112c582611284565b602082019050919050565b600060208201905081810360008301526112e9816112ad565b9050919050565b60006040820190506113056000830185610cfa565b6113126020830184610d2e565b9392505050565b61132281610e71565b811461132d57600080fd5b50565b60008151905061133f81611319565b92915050565b60006020828403121561135b5761135a610d58565b5b600061136984828501611330565b91505092915050565b7f4e487b7100000000000000000000000000000000000000000000000000000000600052601160045260246000fd5b60006113ac82610d24565b91506113b783610d24565b9250827fffffffffffffffffffffffffffffffffffffffffffffffffffffffffffffffff038211156113ec576113eb611372565b5b828201905092915050565b7f4f6e6c79207468652063726561746f722063616e20636f6c6c6563742074686560008201527f2066756e64730000000000000000000000000000000000000000000000000000602082015250565b6000611453602683610dc1565b915061145e826113f7565b604082019050919050565b6000602082019050818103600083015261148281611446565b9050919050565b7f4f776e61626c653a206e6577206f776e657220697320746865207a65726f206160008201527f6464726573730000000000000000000000000000000000000000000000000000602082015250565b60006114e5602683610dc1565b91506114f082611489565b604082019050919050565b60006020820190508181036000830152611514816114d8565b9050919050565b7f4f776e61626c653a2063616c6c6572206973206e6f7420746865206f776e6572600082015250565b6000611551602083610dc1565b915061155c8261151b565b602082019050919050565b6000602082019050818103600083015261158081611544565b905091905056fea26469706673582212207fc7f47ff6984dd8bc91ca51d57c99061171b7b5c4d05c0c7f117cef5ad6040964736f6c634300080d0033a2646970667358221220c8126a40437f59b2ce7dde7efc64bdbe42c63f24072df945f5b2f9a55a024ae964736f6c634300080d0033",
  "immutableReferences": {},
  "source": "// SPDX-License-Identifier: MIT\npragma solidity ^0.8.13;\n\nimport \"@openzeppelin/contracts/access/Ownable.sol\";\nimport \"@openzeppelin/contracts/token/ERC20/ERC20.sol\";\nimport \"./Crowdfunding.sol\";\n\ncontract Factory is Ownable {\n    Crowdfunding[] deployedContracts;\n\n    event PotCreated(address contractAddress);\n\n    function create(string memory title, string memory associationName, uint256 potId, uint256 associationId, address token, uint256 targetAmount) public onlyOwner {\n        Crowdfunding t = new Crowdfunding(msg.sender, title, associationName, potId, associationId, IERC20(token), targetAmount);\n        deployedContracts.push(t);\n    }\n\n    function get() public view returns (uint256 contractCount) {\n        return deployedContracts.length;\n    }\n\n    function see(uint256 pos) public view returns (address contractAddress) {\n        return address(deployedContracts[pos]);\n    }\n}\n",
  "sourcePath": "/Users/theo/projects/eternals/web3streaming/contracts/Factory.sol",
  "compiler": {
    "name": "solc",
    "version": "0.8.13+commit.abaa5c0e.Emscripten.clang"
  },
  "schemaVersion": "3.4.10",
  "updatedAt": "2023-03-05T22:37:42.171Z",
  "networkType": "ethereum",
  "devdoc": {
    "kind": "dev",
    "methods": {
      "owner()": {
        "details": "Returns the address of the current owner."
      },
      "renounceOwnership()": {
        "details": "Leaves the contract without owner. It will not be possible to call `onlyOwner` functions anymore. Can only be called by the current owner. NOTE: Renouncing ownership will leave the contract without an owner, thereby removing any functionality that is only available to the owner."
      },
      "transferOwnership(address)": {
        "details": "Transfers ownership of the contract to a new account (`newOwner`). Can only be called by the current owner."
      }
    },
    "version": 1
  },
  "userdoc": {
    "kind": "user",
    "methods": {},
    "version": 1
  }
}